:100000000C9462000C948A000C948A000C948A0070
:100010000C948A000C948A000C948A000C948A0038
:100020000C948A000C948A000C948A000C948A0028
:100030000C948A000C948A000C948A000C948A0018
:100040000C9449050C948A000C9417050C94F10447
:100050000C948A000C948A000C948A000C948A00F8
:100060000C948A000C948A000000000024002700F1
:100070002A0000000000250028002B0000000008D6
:10008000000201000003040700000000000000005F
:1000900000000000230026002900040404040404D6
:1000A0000404020202020202030303030303010227
:1000B00004081020408001020408102001020408F6
:1000C0001020930511241FBECFEFD8E0DEBFCDBFB7
:1000D00011E0A0E0B1E0E8EEF7E102C005900D927A
:1000E000A237B107D9F722E0A2E7B1E001C01D9223
:1000F000AA32B207E1F710E0C2E6D0E004C02197CF
:10010000FE010E945009C136D107C9F70E94E005DF
:100110000C94F20B0C9400008F929F92AF92BF92BE
:10012000CF92DF92EF92FF92CF93DF93A0911F02C5
:10013000882311F03A2F01C030E08091200290E036
:10014000880F991F80579F4FC0902502D09026029C
:10015000E0902702F090280240E050E0BA01FC0154
:10016000C591D49128812A2323130FC04A015B0132
:100170002FEF821A920AA20AB20A4C155D056E058B
:100180007F0538F4B501A401EACF342F252FCB0128
:1001900004C030E020E080E090E0632F722FDF9118
:1001A000CF91FF90EF90DF90CF90BF90AF909F9056
:1001B0008F900895CF92DF92EF92FF920F931F934B
:1001C000CF93DF936C017A018B01C0E0D0E0CE15B4
:1001D000DF0589F0D8016D918D01D601ED91FC917B
:1001E0000190F081E02DC6010995892B11F47E0163
:1001F00002C02196ECCFC701DF91CF911F910F91E3
:10020000FF90EF90DF90CF900895FC01918D828D4B
:10021000981761F0828DDF01A80FB11D5D968C915A
:10022000928D9F5F9F73928F90E008958FEF9FEF65
:100230000895FC01918D828D981731F0828DE80F21
:10024000F11D858D90E008958FEF9FEF0895FC01DB
:10025000918D228D892F90E0805C9F4F821B9109A8
:100260008F73992708958BE791E00E94270121E081
:10027000892B09F420E0822F0895FC01848DDF0191
:10028000A80FB11DA35ABF4F2C91848D90E0019609
:100290008F739927848FA689B7892C93A089B189F8
:1002A0008C9180648C93938D848D981306C0028802
:1002B000F389E02D80818F7D80830895EF92FF92F6
:1002C0000F931F93CF93DF93EC0181E0888F9B8D79
:1002D0008C8D981305C0E889F989808185FD24C03B
:1002E000F62E0B8D10E00F5F1F4F0F731127E02EBE
:1002F0008C8DE8120CC00FB607FCFACFE889F9899B
:10030000808185FFF5CFCE010E943D01F1CF8B8D1D
:10031000FE01E80FF11DE35AFF4FF0820B8FEA89CF
:10032000FB898081806207C0EE89FF896083E8894C
:10033000F98980818064808381E090E0DF91CF91B2
:100340001F910F91FF90EF900895CF93DF93EC01F1
:10035000888D8823C9F0EA89FB89808185FD05C0E5
:10036000A889B9898C9186FD0FC00FB607FCF5CF1F
:10037000808185FFF2CFA889B9898C9185FFEDCF67
:10038000CE010E943D01E7CFDF91CF91089580E03B
:1003900090E0892B29F00E94330181110C94000018
:1003A000089590E0FC01E458FF4F3491FC01E255C0
:1003B000FF4F2491FC01E656FF4FE491EE2309F430
:1003C0003BC0332339F1333091F038F43130A9F0A8
:1003D000323001F584B58F7D12C0373091F038305E
:1003E000A1F03430B9F4809180008F7D03C08091FA
:1003F00080008F77809380000DC084B58F7784BD97
:1004000009C08091B0008F7703C08091B0008F7DCC
:100410008093B000F0E0EE0FFF1FEE58FF4FA59164
:10042000B4918FB7F894EC91611103C020952E23FD
:1004300001C02E2B2C938FBF0895CF93DF9390E0B4
:10044000FC01E255FF4F2491FC01E656FF4F8491D9
:10045000882361F190E0880F991FFC01E859FF4F54
:10046000C591D491FC01EE58FF4FA591B491611153
:1004700009C09FB7F8948881209582238883EC91E6
:100480002E230BC0623061F49FB7F8943881822F1D
:10049000809583238883EC912E2B2C939FBF06C0DD
:1004A0008FB7F894E8812E2B28838FBFDF91CF91EF
:1004B00008953FB7F8948091730190917401A091D1
:1004C0007501B091760126B5A89B05C02F3F19F0A4
:1004D0000196A11DB11D3FBFBA2FA92F982F8827C4
:1004E000820F911DA11DB11DBC01CD0142E0660F1F
:1004F000771F881F991F4A95D1F708958F929F9271
:10050000AF92BF92CF92DF92EF92FF926B017C018C
:100510000E9459024B015C01C114D104E104F104B1
:10052000F1F00E945902DC01CB0188199909AA094E
:10053000BB09883E9340A105B10570F321E0C21AC2
:10054000D108E108F10888EE880E83E0981EA11C0E
:10055000B11CC114D104E104F10419F7DDCFFF90FF
:10056000EF90DF90CF90BF90AF909F908F900895C5
:10057000CF92DF92EF92FF920F931F93CF93DF936F
:10058000CDB7DEB7C054D1400FB6F894DEBF0FBE72
:10059000CDBF2FB7F8948091770190917801A09109
:1005A0007901B0917A012FBF40912102509122022E
:1005B00060912302709124028C019D01041B150B94
:1005C000260B370BB901A801403D57406105710565
:1005D00018F480912902BCC08093210290932202DA
:1005E000A0932302B093240210921C0210921B02CB
:1005F00010921A02109219021092180261E0809172
:100600001D020E94D1016AEF70E080E090E00E943C
:100610007E0261E080911D020E941D0260E08091D7
:100620001D020E94D10164E170E080E090E00E9430
:100630007E02F89461E080911D020E94D1018BE955
:1006400090E00197F1F762E080911D020E941D0287
:1006500083E290E00197F1F780E00E948C00672B25
:10066000682B692B21F41092290278943EC081E016
:100670000E948C00672B682B692BA9F38E010F5FFA
:100680001F4F6E012FEBC21A2EEFD20A780180E0C5
:100690000E948C00F701608371838283938381E0E1
:1006A0000E948C00F7016483758386839783F8E04A
:1006B000EF0EF11CEC14FD0451F7789420E030E0CB
:1006C000F8014081518162817381C480D580E680C8
:1006D000F780411551056105710529F0C114D10458
:1006E000E104F10421F41092290280E031C0F90103
:1006F00083E0F595E7958A95E1F7E85EFD4F808107
:10070000880F4C155D056E057F0508F481608083B8
:100710002F5F3F4F085F1F4F2832310589F6209128
:100720001C0230E0409118028091190290E0840F81
:10073000911D40911A02840F911D40911B02840F5C
:10074000911D99272817390771F681E080932902B6
:10075000C05CDE4F0FB6F894DEBF0FBECDBFDF9199
:10076000CF911F910F91FF90EF90DF90CF90089560
:10077000009769F0FC0101900020E9F73197AF0183
:10078000481B590BBC018BE791E00C94DA0080E028
:1007900090E008958F929F92AF92BF920F931F9314
:1007A000CF93DF93CDB7DEB7A1970FB6F894DEBF36
:1007B0000FBECDBF19A2423008F44AE08E010F5D92
:1007C0001F4F842E912CA12CB12CA50194010E94C5
:1007D0002E09E62FB901CA0101501109EA3014F4BB
:1007E000E05D01C0E95CD801EC93232B242B252B81
:1007F00061F7C8010E94B803A1960FB6F894DEBF56
:100800000FBECDBFDF91CF911F910F91BF90AF90E1
:100810009F908F9008954F925F926F927F928F92E8
:100820009F92AF92BF92CF92DF92EF92FF926B01B5
:100830007C01B42E9B01AC010E94D30B882319F0DC
:1008400080E191E027C026013701E89477F82FEF87
:100850003FEF4FE75FE7C301B2010E94D30B811165
:100860000DC02FEF3FEF4FE75FE7C301B2010E94DA
:10087000C30918161CF484E191E00CC02FEF3FEF80
:100880004FE75FE4C701B6010E941B0B181684F402
:1008900088E191E0FF90EF90DF90CF90BF90AF9014
:1008A0009F908F907F906F905F904F900C94B803C3
:1008B0002FEF3FEF4FE75FECC701B6010E94C3097E
:1008C00087FDE6CF20E030E0A901C701B6010E9414
:1008D000C30987FF11C0E0917B01F0917C01019079
:1008E000F081E02D6DE28BE791E009954C01F7FA7C
:1008F000F094F7F8F09402C0812C912CA12C60E0C8
:1009000070E080E09FE3AB1441F020E030E040E293
:1009100051E40E94C809A394F6CF9B01AC01C70122
:10092000B6010E9457092B013C010E943A0A6B0153
:100930007C010E94690A9B01AC01C301B2010E94C3
:1009400056092B013C014AE0C701B6010E94CA03C7
:100950007C01E80CF91CBB2069F0E0917B01F0916F
:100960007C010190F081E02D6EE28BE791E009952A
:10097000E80EF91EDB2CDD2021F120E030E040E222
:1009800051E4C301B2010E94200B2B013C010E94E3
:100990003A0A4B01A12CB12C4AE0C501B4010E94D6
:1009A000CA03E80EF91EC501B4010E94690A9B0141
:1009B000AC01C301B2010E9456092B013C01DA943B
:1009C000DACFC701FF90EF90DF90CF90BF90AF904C
:1009D0009F908F907F906F905F904F9008950E94AE
:1009E000ED0B1F920F920FB60F9211242F933F938E
:1009F0004F935F936F937F938F939F93AF93BF9327
:100A0000EF93FF938BE791E00E943D01FF91EF91FF
:100A1000BF91AF919F918F917F916F915F914F9116
:100A20003F912F910F900FBE0F901F9018951F921E
:100A30000F920FB60F9211242F938F939F93EF93E2
:100A4000FF93E0918B01F0918C018081E091910105
:100A5000F091920182FD12C09081809194018F5F8C
:100A60008F7320919501821751F0E0919401F0E08D
:100A7000E558FE4F958F8093940101C08081FF91CE
:100A8000EF919F918F912F910F900FBE0F901F901C
:100A900018951F920F920FB60F9211242F933F9328
:100AA0008F939F93AF93BF9380917701909178013B
:100AB000A0917901B0917A013091720123E0230F66
:100AC0002D3720F40196A11DB11D05C026E8230F86
:100AD0000296A11DB11D209372018093770190931E
:100AE0007801A0937901B0937A018091730190917C
:100AF0007401A0917501B09176010196A11DB11DFF
:100B00008093730190937401A0937501B093760163
:100B1000BF91AF919F918F913F912F910F900FBEF9
:100B20000F901F901895EBE7F1E01382128288EE88
:100B300093E0A0E0B0E084839583A683B78384E04C
:100B400091E09183808385EC90E09587848784ECA5
:100B500090E09787868780EC90E0918B808B81EC8A
:100B600090E0938B828B82EC90E0958B848B86EC6B
:100B700090E0978B868B118E128E138E148EA8E1C7
:100B8000B2E082E015968C9315978BE016968C93C5
:100B90001697E0EBF0E0E4911796EC931797ECE9E9
:100BA000F0E0E4911896EC93189740E85EE360E07B
:100BB00070E01D964D935D936D937C9350970895CF
:100BC000CF93DF93CDB7DEB72C970FB6F894DEBF87
:100BD0000FBECDBF789484B5826084BD84B581603A
:100BE00084BD85B5826085BD85B5816085BD8091F8
:100BF0006E00816080936E00109281008091810070
:100C00008260809381008091810081608093810067
:100C1000809180008160809380008091B100846029
:100C20008093B1008091B00081608093B00080918A
:100C30007A00846080937A0080917A008260809349
:100C40007A0080917A00816080937A0080917A00A6
:100C5000806880937A001092C100E0918B01F0913E
:100C60008C0182E08083E0918701F09188011082FD
:100C7000E0918901F0918A018FEC808310929301B9
:100C8000E0918F01F091900186E08083E0918D01E9
:100C9000F0918E01808180618083E0918D01F091DF
:100CA0008E01808188608083E0918D01F0918E01BA
:100CB000808180688083E0918D01F0918E01808138
:100CC0008F7D808362E080911D020E941D0280E37F
:100CD00098EFAFEFBFEF8093210290932202A09391
:100CE0002302B09324028BE791E00E942701892B15
:100CF00009F4F8C18BE791E00E940501843709F0FF
:100D0000F1C10E94B8028823B1F180911E028B309C
:100D100041F188F18551823070F56091180270E0E0
:100D200080E090E00E94690A20E030E040E853E46F
:100D30000E94200B6B017C0180911902682F70E0EA
:100D400080E090E00E946B0A9B01AC01C701B601F4
:100D50000E9457092DEC3CEC4CEC5DE30E94200B0B
:100D600007C06091180270E080E090E00E94690A7C
:100D70002B013C0106C0412C512C80EC682E8FE7E2
:100D8000782E0E94B802882309F455C280911E0271
:100D90008B3031F008F43FC08551823068F03BC0A1
:100DA00060911A0270E080E090E00E94690A698315
:100DB0007A838B839C8337C010911A02612F6F77DF
:100DC00070E080E090E00E946B0A20E030E040E8B4
:100DD00053E40E94200B6B017C0180911B02682F61
:100DE00070E080E090E00E946B0A9B01AC01C701BB
:100DF000B6010E9457092DEC3CEC4CEC5DE30E94DF
:100E0000200B69837A838B839C8317FF0CC0DC01E2
:100E1000CB01B05804C080E090E0A0ECBFE789832C
:100E20009A83AB83BC83A3019201C301B2010E94E8
:100E3000D30B811100C229813A814B815C81CA01A7
:100E4000B9010E94D30B8111F6C126E636E646EEC3
:100E50005FE369817A818B819C810E94200B20E075
:100E600030E040E052E40E9457094B015C0120E071
:100E700030E044E752E40E9457096B017C0120E016
:100E800030E048E852E4C501B4010E9456092AE95D
:100E900039E949E95FE30E94200B9B01AC01C701DE
:100EA000B6010E9457096B017C0122E133E840EC56
:100EB0005DE3C301B2010E94200B9B01AC01C7019D
:100EC000B6010E94570920E030E040E05FE30E9455
:100ED000200B6B017C0120E030E04EE952E40E94DF
:100EE0001B0B18160CF0C5C0A5019401C501B40177
:100EF0000E94200B6D837E838F839887A3019201CC
:100F0000C301B2010E94200B69877A878B879C8777
:100F100021E133E243E050E4C501B4010E94200B1B
:100F200029E134E849E252E40E9456096B017C0150
:100F300026E13BE442E251E4C301B2010E94200BEE
:100F40009B01AC01C701B6010E9457096B017C01EE
:100F500028E436E246E65EEBC501B4010E94200BB0
:100F6000A30192010E94200B9B01AC01C701B601B5
:100F70000E9457096B017C0120EE3FE040EE5BEBE5
:100F80006D817E818F8198850E94200B9B01AC0131
:100F9000C701B6010E9457096B017C0128EF37E8B1
:100FA00040E65DEB69857A858B859C850E94200BE8
:100FB0009B01AC01C701B6010E9457096B017C017E
:100FC0002CEA3DE041EA5AE36D817E818F8198856C
:100FD0000E94200BA30192010E94200B9B01AC01F7
:100FE000C701B6010E9457096B017C0128EC3FE85C
:100FF0004FE55AE3C501B4010E94200B29853A85CB
:101000004B855C850E94200B9B01AC01C701B6019A
:101010000E9457096B017C0121EF3BE845E056EB4C
:101020006D817E818F8198850E94200B29853A856C
:101030004B855C850E94200B9B01AC01C701B6016A
:101040000E9457096B017C0120E030E040E551E44B
:10105000C301B2010E94C30987FD47C020E030E010
:101060004AEA52E4C301B2010E941B0B18160CF4A9
:101070009CC08CE191E00E94B80342E0C301B20140
:101080000E940B0488E291E00E94B8038FE691E091
:101090000E94B8038CE291E00E94B80342E06981AB
:1010A0007A818B819C810E940B048AE391E00E94EB
:1010B000B8038EE391E00E94B80320E030E040E006
:1010C00052E4C701B6010E94560926E838E34EE013
:1010D0005FE30E94200B42E00E940B048BE491E04E
:1010E0000E94B8030E94C701FECD20E030E040EA34
:1010F00052E4C501B4010E941B0B87FDAFCF20E075
:1011000030E040EE52E4C501B4010E94C309181654
:101110000CF498C0A301920160E070E080E591E4D6
:101120000E94560920E030E040E85EE30E94200B78
:101130006D837E838F83988720E030E04EEB52E40E
:10114000C501B4010E9456094B015C0120E030E06A
:10115000A9010E941B0B18164CF4A501940160E034
:1011600070E088E891E40E94560908C020E030E071
:1011700048E851E4C501B4010E9457092EE33DEE51
:1011800040E75DE30E94200B0E94930B9B01AC01A2
:101190006D817E818F8198850E94200B9B01AC011F
:1011A000C701B6010E94560943C020E030E040EA82
:1011B00052E4C501B4010E941B0B87FD5ACF20E009
:1011C00030E04EEA52E4C501B4010E94C30918168A
:1011D0000CF44FCF20E030E04AEA52E4C301B20100
:1011E0000E9456092DEC3CEC4CEC5DE30E94200B78
:1011F0006D837E838F839887A501940160E070E002
:101200008EEA92E40E9456092DEC3CEC4CE45EE33D
:101210000E94200B9B01AC016D817E818F8198859E
:101220000E94200B9B01AC01C701B6010E94570927
:101230006B017C011ECF8EE491E00E94B8038EE624
:1012400091E04ECF20E030E04AEA52E4C301B2011F
:101250000E941B0B18160CF4B2CF0BCFA1E21A2E72
:10126000AA1BBB1BFD010DC0AA1FBB1FEE1FFF1F4A
:10127000A217B307E407F50720F0A21BB30BE40B9A
:10128000F50B661F771F881F991F1A9469F76095E1
:101290007095809590959B01AC01BD01CF0108959B
:1012A000EE0FFF1F0590F491E02D09945058BB27D5
:1012B000AA270E946E090C94E10A0E94D30A38F012
:1012C0000E94DA0A20F039F49F3F19F426F40C94B6
:1012D000D00A0EF4E095E7FB0C94CA0AE92F0E94AD
:1012E000F20A58F3BA17620773078407950720F0CC
:1012F00079F4A6F50C94140B0EF4E0950B2EBA2F8E
:10130000A02D0B01B90190010C01CA01A00111240B
:10131000FF27591B99F0593F50F4503E68F11A16B7
:10132000F040A22F232F342F4427585FF3CF469548
:1013300037952795A795F0405395C9F77EF41F166A
:10134000BA0B620B730B840BBAF09150A1F0FF0F34
:10135000BB1F661F771F881FC2F70EC0BA0F621F20
:10136000731F841F48F4879577956795B795F79510
:101370009E3F08F0B0CF9395880F08F09927EE0FA5
:101380009795879508950E94A60A08F481E008952C
:101390000E94DC090C94E10A0E94DA0A58F00E94CB
:1013A000D30A40F029F45F3F29F00C94CA0A511186
:1013B0000C94150B0C94D00A0E94F20A68F399233E
:1013C000B1F3552391F3951B550BBB27AA27621741
:1013D0007307840738F09F5F5F4F220F331F441F4E
:1013E000AA1FA9F335D00E2E3AF0E0E832D0915082
:1013F0005040E695001CCAF72BD0FE2F29D0660F6F
:10140000771F881FBB1F261737074807AB07B0E8B1
:1014100009F0BB0B802DBF01FF2793585F4F3AF0B7
:101420009E3F510578F00C94CA0A0C94150B5F3F4F
:10143000E4F3983ED4F3869577956795B795F7953D
:101440009F5FC9F7880F911D9695879597F9089525
:10145000E1E0660F771F881FBB1F621773078407C1
:10146000BA0720F0621B730B840BBA0BEE1F88F7D0
:10147000E09508950E94FA0A88F09F5798F0B92FD6
:101480009927B751B0F0E1F0660F771F881F991FB9
:101490001AF0BA95C9F714C0B13091F00E94140B3C
:1014A000B1E008950C94140B672F782F8827B85F4C
:1014B00039F0B93FCCF3869577956795B395D9F711
:1014C0003EF490958095709561957F4F8F4F9F4F1B
:1014D0000895E89409C097FB3EF490958095709527
:1014E00061957F4F8F4F9F4F9923A9F0F92F96E970
:1014F000BB279395F695879577956795B795F111E5
:10150000F8CFFAF4BB0F11F460FF1BC06F5F7F4F81
:101510008F4F9F4F16C0882311F096E911C0772393
:1015200021F09EE8872F762F05C0662371F096E89C
:10153000862F70E060E02AF09A95660F771F881F6B
:10154000DAF7880F9695879597F90895990F00080F
:10155000550FAA0BE0E8FEEF16161706E807F90785
:10156000C0F012161306E407F50798F0621B730B20
:10157000840B950B39F40A2661F0232B242B252BA1
:1015800021F408950A2609F4A140A6958FEF811D44
:10159000811D089597F99F6780E870E060E00895E5
:1015A0009FEF80EC089500240A941616170618067B
:1015B0000906089500240A94121613061406050657
:1015C0000895092E0394000C11F4882352F0BB0FE8
:1015D00040F4BF2B11F460FF04C06F5F7F4F8F4F4B
:1015E0009F4F089557FD9058440F551F59F05F3F86
:1015F00071F04795880F97FB991F61F09F3F79F035
:1016000087950895121613061406551FF2CF4695B6
:10161000F1DF08C0161617061806991FF1CF869538
:101620007105610508940895E894BB27662777271C
:10163000CB0197F908950E94A60A08F48FEF089548
:101640000E94330B0C94E10A0E94D30A38F00E94E6
:10165000DA0A20F0952311F00C94CA0A0C94D00AEF
:1016600011240C94150B0E94F20A70F3959FC1F39C
:10167000950F50E0551F629FF001729FBB27F00D40
:10168000B11D639FAA27F00DB11DAA1F649F662795
:10169000B00DA11D661F829F2227B00DA11D621FE4
:1016A000739FB00DA11D621F839FA00D611D221F9E
:1016B000749F3327A00D611D231F849F600D211D82
:1016C000822F762F6A2F11249F5750409AF0F1F005
:1016D00088234AF0EE0FFF1FBB1F661F771F881F6E
:1016E00091505040A9F79E3F510580F00C94CA0AD2
:1016F0000C94150B5F3FE4F3983ED4F386957795F1
:101700006795B795F795E7959F5FC1F7FE2B880F13
:10171000911D9695879597F9089519F416F40C94F0
:10172000D00A0C94D80B0E94FA0AB8F39923C9F393
:10173000B6F39F57550B87FF0E94E60B0024A0E6E7
:1017400040EA900180585695979528F4805C660F82
:10175000771F881F20F026173707480730F4621BD1
:10176000730B840B202931294A2BA69517940794D3
:10177000202531254A2758F7660F771F881F20F04C
:1017800026173707480730F4620B730B840B200DC4
:10179000311D411DA09581F7B901842F9158880F03
:1017A0009695879508950E94A60A880B990B08952F
:1017B0009F3F31F0915020F4879577956795B795C5
:1017C000880F911D9695879597F9089591505040EF
:1017D000660F771F881FD2F7089581E090E0F89494
:0817E0000C94F20BF894FFCF0A
:1017E800000000005E01DA00270105011901A501CA
:1017F8006E616E00696E66006F76660057696C6789
:101808006F746E6F9C3A20002025090054656D7036
:10181800657261747572613A20002A430A0048654E
:10182800617420696E6465783A20002A4300466135
:10183800696C656420746F20726561642066726FDC
:101848006D204448542073656E736F7221000D0A31
:0218580000008E
:107E0000112484B714BE81FFF0D085E080938100F7
:107E100082E08093C00088E18093C10086E0809377
:107E2000C20080E18093C4008EE0C9D0259A86E02C
:107E300020E33CEF91E0309385002093840096BBD3
:107E4000B09BFECF1D9AA8958150A9F7CC24DD24C4
:107E500088248394B5E0AB2EA1E19A2EF3E0BF2EE7
:107E6000A2D0813461F49FD0082FAFD0023811F036
:107E7000013811F484E001C083E08DD089C08234E0
:107E800011F484E103C0853419F485E0A6D080C0E4
:107E9000853579F488D0E82EFF2485D0082F10E0AE
:107EA000102F00270E291F29000F111F8ED06801E7
:107EB0006FC0863521F484E090D080E0DECF843638
:107EC00009F040C070D06FD0082F6DD080E0C81688
:107ED00080E7D80618F4F601B7BEE895C0E0D1E017
:107EE00062D089930C17E1F7F0E0CF16F0E7DF06D8
:107EF00018F0F601B7BEE89568D007B600FCFDCFD4
:107F0000A601A0E0B1E02C9130E011968C91119780
:107F100090E0982F8827822B932B1296FA010C0160
:107F200087BEE89511244E5F5F4FF1E0A038BF0790
:107F300051F7F601A7BEE89507B600FCFDCF97BE46
:107F4000E89526C08437B1F42ED02DD0F82E2BD052
:107F50003CD0F601EF2C8F010F5F1F4F84911BD097
:107F6000EA94F801C1F70894C11CD11CFA94CF0C13
:107F7000D11C0EC0853739F428D08EE10CD085E9AC
:107F80000AD08FE07ACF813511F488E018D01DD067
:107F900080E101D065CF982F8091C00085FFFCCF94
:107FA0009093C60008958091C00087FFFCCF809118
:107FB000C00084FD01C0A8958091C6000895E0E648
:107FC000F0E098E1908380830895EDDF803219F02E
:107FD00088E0F5DFFFCF84E1DECF1F93182FE3DFCA
:107FE0001150E9F7F2DF1F91089580E0E8DFEE27F6
:047FF000FF270994CA
:027FFE00040479
:0400000300007E007B
:00000001FF
